:020000040000FA
:10000000000000EB250000EB2C008FE2000C90E8D4
:1000100000A08AE000B08BE001704AE20B005AE1D8
:100020000000001A1D0000EB0F00BAE818E04FE2D4
:10003000010013E303F0471013FF2FE1F801000064
:10004000080200000030B0E30040B0E30050B0E32D
:100050000060B0E3102052E27800A128FCFFFF8A84
:10006000822EB0E13000A128003081451EFF2FE133
:1000700001C08FE21CFF2FE11FB500F0D7F80598F3
:1000800086460FBC009C02B07047000001C08FE2A2
:100090001CFF2FE130B47546AE4630BC70470000FF
:1000A0003C0000EB0210A0E1F0FFFFEB1CC09FE55D
:1000B0000FC08CE001001CE30DE08F120FE0A001E7
:1000C0001CFF2FE101C08FE21CFF2FE100F094F82C
:1000D000480000007847C046EBFFFFEB4B0000EB09
:1000E0000C009FE50C109FE504209FE508309FE57C
:1000F0001EFF2FE1600000406004004060000040EF
:1001000080009FE5080090E50010E0E3010080E139
:1001100070109FE5080081E50000A0E3180081E56C
:10012000100000EA5C009FE5100090E5010810E374
:100130000600001A4C009FE5040090E50010E0E383
:10014000010080E13C109FE5040081E5050000EA24
:1001500030009FE50C0090E50010E0E3010080E135
:1001600020109FE50C0081E5EDFFFFEA0000A0E311
:10017000000000EA010080E20C109FE5010050E160
:10018000FBFFFF3A1EFF2FE1008002E03075000008
:1001900070477047704700000E50A0E1180000EB58
:1001A00005E0A0E10050B0E10D10A0E10A30A0E1AF
:1001B0000700C0E300D0A0E160D08DE220402DE92F
:1001C000C6FFFFEB2040BDE80060A0E30070A0E3A5
:1001D0000080A0E300B0A0E30710C1E305C0A0E1E8
:1001E000C009ACE8C009ACE8C009ACE8C009ACE89B
:1001F00001D0A0E11EFF2FE10400C046C046200050
:10020000FFF768FF00009FE51EFF2FE100000040A0
:100210000C109FE51800A0E3563412EF1EFF2FE1EB
:1002200008000000260002001EFF2FE17847C046AC
:100230001EFF2FE14402000000000040E80400001F
:040240004400000076
:0400000500000000F7
:00000001FF
